{
  "contractName": "OrbitToken",
  "abi": [
    {
      "constant": true,
      "inputs": [
        {
          "name": "",
          "type": "address"
        }
      ],
      "name": "balanceOf",
      "outputs": [
        {
          "name": "",
          "type": "uint256"
        }
      ],
      "payable": false,
      "stateMutability": "view",
      "type": "function",
      "signature": "0x70a08231"
    },
    {
      "constant": true,
      "inputs": [
        {
          "name": "",
          "type": "address"
        },
        {
          "name": "",
          "type": "address"
        }
      ],
      "name": "allowance",
      "outputs": [
        {
          "name": "",
          "type": "uint256"
        }
      ],
      "payable": false,
      "stateMutability": "view",
      "type": "function",
      "signature": "0xdd62ed3e"
    },
    {
      "inputs": [
        {
          "name": "_initialSupply",
          "type": "uint256"
        }
      ],
      "payable": false,
      "stateMutability": "nonpayable",
      "type": "constructor",
      "signature": "constructor"
    },
    {
      "anonymous": false,
      "inputs": [
        {
          "indexed": true,
          "name": "_from",
          "type": "address"
        },
        {
          "indexed": true,
          "name": "_to",
          "type": "address"
        },
        {
          "indexed": false,
          "name": "_value",
          "type": "uint256"
        }
      ],
      "name": "Transfer",
      "type": "event",
      "signature": "0xddf252ad1be2c89b69c2b068fc378daa952ba7f163c4a11628f55a4df523b3ef"
    },
    {
      "anonymous": false,
      "inputs": [
        {
          "indexed": true,
          "name": "_owner",
          "type": "address"
        },
        {
          "indexed": true,
          "name": "_spender",
          "type": "address"
        },
        {
          "indexed": false,
          "name": "_value",
          "type": "uint256"
        }
      ],
      "name": "Approval",
      "type": "event",
      "signature": "0x8c5be1e5ebec7d5bd14f71427d1e84f3dd0314c0f7b2291e5b200ac8c7c3b925"
    },
    {
      "constant": true,
      "inputs": [],
      "name": "name",
      "outputs": [
        {
          "name": "",
          "type": "string"
        }
      ],
      "payable": false,
      "stateMutability": "view",
      "type": "function",
      "signature": "0x06fdde03"
    },
    {
      "constant": true,
      "inputs": [],
      "name": "symbol",
      "outputs": [
        {
          "name": "",
          "type": "string"
        }
      ],
      "payable": false,
      "stateMutability": "view",
      "type": "function",
      "signature": "0x95d89b41"
    },
    {
      "constant": true,
      "inputs": [],
      "name": "version",
      "outputs": [
        {
          "name": "",
          "type": "string"
        }
      ],
      "payable": false,
      "stateMutability": "view",
      "type": "function",
      "signature": "0x54fd4d50"
    },
    {
      "constant": true,
      "inputs": [],
      "name": "totalSupply",
      "outputs": [
        {
          "name": "",
          "type": "uint256"
        }
      ],
      "payable": false,
      "stateMutability": "view",
      "type": "function",
      "signature": "0x18160ddd"
    },
    {
      "constant": false,
      "inputs": [
        {
          "name": "_to",
          "type": "address"
        },
        {
          "name": "_value",
          "type": "uint256"
        }
      ],
      "name": "transfer",
      "outputs": [
        {
          "name": "success",
          "type": "bool"
        }
      ],
      "payable": false,
      "stateMutability": "nonpayable",
      "type": "function",
      "signature": "0xa9059cbb"
    },
    {
      "constant": false,
      "inputs": [
        {
          "name": "_spender",
          "type": "address"
        },
        {
          "name": "_value",
          "type": "uint256"
        }
      ],
      "name": "approve",
      "outputs": [
        {
          "name": "success",
          "type": "bool"
        }
      ],
      "payable": false,
      "stateMutability": "nonpayable",
      "type": "function",
      "signature": "0x095ea7b3"
    },
    {
      "constant": false,
      "inputs": [
        {
          "name": "_from",
          "type": "address"
        },
        {
          "name": "_to",
          "type": "address"
        },
        {
          "name": "_value",
          "type": "uint256"
        }
      ],
      "name": "transferFrom",
      "outputs": [
        {
          "name": "success",
          "type": "bool"
        }
      ],
      "payable": false,
      "stateMutability": "nonpayable",
      "type": "function",
      "signature": "0x23b872dd"
    }
  ],
  "bytecode": "0x60806040526040805190810160405280600b81526020017f4f7262697420546f6b656e0000000000000000000000000000000000000000008152506000908051906020019061004f929190610176565b506040805190810160405280600381526020017f4f524200000000000000000000000000000000000000000000000000000000008152506001908051906020019061009b929190610176565b506040805190810160405280600881526020017f4f52422076312e30000000000000000000000000000000000000000000000000815250600290805190602001906100e7929190610176565b503480156100f457600080fd5b50604051602080610e198339810180604052602081101561011457600080fd5b810190808051906020019092919050505080600460003373ffffffffffffffffffffffffffffffffffffffff1673ffffffffffffffffffffffffffffffffffffffff16815260200190815260200160002081905550806003819055505061021b565b828054600181600116156101000203166002900490600052602060002090601f016020900481019282601f106101b757805160ff19168380011785556101e5565b828001600101855582156101e5579182015b828111156101e45782518255916020019190600101906101c9565b5b5090506101f291906101f6565b5090565b61021891905b808211156102145760008160009055506001016101fc565b5090565b90565b610bef8061022a6000396000f3fe608060405260043610610099576000357c0100000000000000000000000000000000000000000000000000000000900463ffffffff16806306fdde031461009e578063095ea7b31461012e57806318160ddd146101a157806323b872dd146101cc57806354fd4d501461025f57806370a08231146102ef57806395d89b4114610354578063a9059cbb146103e4578063dd62ed3e14610457575b600080fd5b3480156100aa57600080fd5b506100b36104dc565b6040518080602001828103825283818151815260200191508051906020019080838360005b838110156100f35780820151818401526020810190506100d8565b50505050905090810190601f1680156101205780820380516001836020036101000a031916815260200191505b509250505060405180910390f35b34801561013a57600080fd5b506101876004803603604081101561015157600080fd5b81019080803573ffffffffffffffffffffffffffffffffffffffff1690602001909291908035906020019092919050505061057e565b604051808215151515815260200191505060405180910390f35b3480156101ad57600080fd5b506101b6610670565b6040518082815260200191505060405180910390f35b3480156101d857600080fd5b50610245600480360360608110156101ef57600080fd5b81019080803573ffffffffffffffffffffffffffffffffffffffff169060200190929190803573ffffffffffffffffffffffffffffffffffffffff1690602001909291908035906020019092919050505061067a565b604051808215151515815260200191505060405180910390f35b34801561026b57600080fd5b506102746108e9565b6040518080602001828103825283818151815260200191508051906020019080838360005b838110156102b4578082015181840152602081019050610299565b50505050905090810190601f1680156102e15780820380516001836020036101000a031916815260200191505b509250505060405180910390f35b3480156102fb57600080fd5b5061033e6004803603602081101561031257600080fd5b81019080803573ffffffffffffffffffffffffffffffffffffffff16906020019092919050505061098b565b6040518082815260200191505060405180910390f35b34801561036057600080fd5b506103696109a3565b6040518080602001828103825283818151815260200191508051906020019080838360005b838110156103a957808201518184015260208101905061038e565b50505050905090810190601f1680156103d65780820380516001836020036101000a031916815260200191505b509250505060405180910390f35b3480156103f057600080fd5b5061043d6004803603604081101561040757600080fd5b81019080803573ffffffffffffffffffffffffffffffffffffffff16906020019092919080359060200190929190505050610a45565b604051808215151515815260200191505060405180910390f35b34801561046357600080fd5b506104c66004803603604081101561047a57600080fd5b81019080803573ffffffffffffffffffffffffffffffffffffffff169060200190929190803573ffffffffffffffffffffffffffffffffffffffff169060200190929190505050610b9e565b6040518082815260200191505060405180910390f35b606060008054600181600116156101000203166002900480601f0160208091040260200160405190810160405280929190818152602001828054600181600116156101000203166002900480156105745780601f1061054957610100808354040283529160200191610574565b820191906000526020600020905b81548152906001019060200180831161055757829003601f168201915b5050505050905090565b600081600560003373ffffffffffffffffffffffffffffffffffffffff1673ffffffffffffffffffffffffffffffffffffffff16815260200190815260200160002060008573ffffffffffffffffffffffffffffffffffffffff1673ffffffffffffffffffffffffffffffffffffffff168152602001908152602001600020819055508273ffffffffffffffffffffffffffffffffffffffff163373ffffffffffffffffffffffffffffffffffffffff167f8c5be1e5ebec7d5bd14f71427d1e84f3dd0314c0f7b2291e5b200ac8c7c3b925846040518082815260200191505060405180910390a36001905092915050565b6000600354905090565b6000600460008573ffffffffffffffffffffffffffffffffffffffff1673ffffffffffffffffffffffffffffffffffffffff1681526020019081526020016000205482111515156106ca57600080fd5b600560008573ffffffffffffffffffffffffffffffffffffffff1673ffffffffffffffffffffffffffffffffffffffff16815260200190815260200160002060003373ffffffffffffffffffffffffffffffffffffffff1673ffffffffffffffffffffffffffffffffffffffff16815260200190815260200160002054821115151561075557600080fd5b81600460008673ffffffffffffffffffffffffffffffffffffffff1673ffffffffffffffffffffffffffffffffffffffff1681526020019081526020016000206000828254039250508190555081600460008573ffffffffffffffffffffffffffffffffffffffff1673ffffffffffffffffffffffffffffffffffffffff1681526020019081526020016000206000828254019250508190555081600560008673ffffffffffffffffffffffffffffffffffffffff1673ffffffffffffffffffffffffffffffffffffffff16815260200190815260200160002060003373ffffffffffffffffffffffffffffffffffffffff1673ffffffffffffffffffffffffffffffffffffffff168152602001908152602001600020600082825403925050819055508273ffffffffffffffffffffffffffffffffffffffff168473ffffffffffffffffffffffffffffffffffffffff167fddf252ad1be2c89b69c2b068fc378daa952ba7f163c4a11628f55a4df523b3ef846040518082815260200191505060405180910390a3600190509392505050565b606060028054600181600116156101000203166002900480601f0160208091040260200160405190810160405280929190818152602001828054600181600116156101000203166002900480156109815780601f1061095657610100808354040283529160200191610981565b820191906000526020600020905b81548152906001019060200180831161096457829003601f168201915b5050505050905090565b60046020528060005260406000206000915090505481565b606060018054600181600116156101000203166002900480601f016020809104026020016040519081016040528092919081815260200182805460018160011615610100020316600290048015610a3b5780601f10610a1057610100808354040283529160200191610a3b565b820191906000526020600020905b815481529060010190602001808311610a1e57829003601f168201915b5050505050905090565b600081600460003373ffffffffffffffffffffffffffffffffffffffff1673ffffffffffffffffffffffffffffffffffffffff1681526020019081526020016000205410151515610a9557600080fd5b81600460003373ffffffffffffffffffffffffffffffffffffffff1673ffffffffffffffffffffffffffffffffffffffff1681526020019081526020016000206000828254039250508190555081600460008573ffffffffffffffffffffffffffffffffffffffff1673ffffffffffffffffffffffffffffffffffffffff168152602001908152602001600020600082825401925050819055508273ffffffffffffffffffffffffffffffffffffffff163373ffffffffffffffffffffffffffffffffffffffff167fddf252ad1be2c89b69c2b068fc378daa952ba7f163c4a11628f55a4df523b3ef846040518082815260200191505060405180910390a36001905092915050565b600560205281600052604060002060205280600052604060002060009150915050548156fea165627a7a7230582019e80571b00f9c6db9d1202b2bea4648be4bca31ff93c8e2302e848da45fefa90029",
  "source": "pragma solidity ^0.5.0;\n\n// ERC20 standard requires six main functions:\n// totalSupply\n// balanceOf\n// allowance\n// transfer\n// approve\n// transferFrom\n\n// and two events:\n// event Transfer \n// event Approval\n\ncontract OrbitToken {\n\n\t// token name\n\tstring private _name = \"Orbit Token\";\n\n\t// token symbol\n\tstring private _symbol = \"ORB\";\n\n\t//token version\n\tstring private _version = \"ORB v1.0\";\n\n\t//total supply\n\tuint256 private _totalSupply;\n\n\t//Transfer event\n\t//users can subscribe/listen to events, receive alerts if event is triggered\n\tevent Transfer(address indexed _from, address indexed _to, uint256 _value);\n\n\t//Approval event\n\tevent Approval(address indexed _owner, address indexed _spender, uint256 _value);\n\n\t//mapping should indicate which addresses hold what balances of tokens\n\t//includes required balanceOf function\n\tmapping(address => uint256) public balanceOf;\n\n\t//allows address to approve another address' transfers\n\t//includes allowance function which returns the amount which the third party is allowed to transfer on the sending user's behalf\n\tmapping(address => mapping(address => uint256)) public allowance;\n\n\tconstructor(uint256 _initialSupply) public {\n\t\t//msg global variable has sender method\n\t\t//for now, balance should be first address in ganache\n\t\tbalanceOf[msg.sender] = _initialSupply;\n\t\t_totalSupply = _initialSupply;\n\t}\n\n\t//returns the name of the token\n\tfunction name() public view returns (string memory) {\n\t\treturn _name;\n\t}\n\n\t//returns the symbol of the token\n\tfunction symbol() public view returns (string memory) {\n\t\treturn _symbol;\n\t}\n\n\t//returns the symbol of the token\n\tfunction version() public view returns (string memory) {\n\t\treturn _version;\n\t}\n\n\t//_totalSupply is initialised in constructor\n\tfunction totalSupply() public view returns (uint256) {\n\t\treturn _totalSupply;\n\t}\n\n\t//transfer function\n\tfunction transfer(address _to, uint256 _value) public returns (bool success) {\n\t\t//must throw exception if msg.sender has insufficient balance\n\t\t//if require evalutes to true, function continues to execute, if not then function execution stops\n\t\trequire(balanceOf[msg.sender] >= _value);\n\n\t\t//transfer balance, decrease balance by amount transferred\n\t\tbalanceOf[msg.sender] -= _value;\n\t\t//increase balance of recipient address\n\t\tbalanceOf[_to] += _value;\n\n\t\t//Transfer event must be triggered\n\t\temit Transfer(msg.sender, _to, _value);\n\t\t//return true if transfer successful\n\t\treturn true;\n\t}\n\n\t//approve function allows a user to approve another user to spend tokens on their behalf\n\t//this would be used in to allow our exchange to transfer tokens on a user's behalf\n\t//trigger and log Approval event\n\tfunction approve(address _spender, uint256 _value) public returns (bool success) {\n\n\t\t//calls allowance function to update\n\t\tallowance[msg.sender][_spender] = _value;\n\n\t\t//Approval event must be triggered\n\t\temit Approval(msg.sender, _spender, _value);\n\t\treturn true;\n\t}\n\n\t//transferFrom function handles transfers, once the sending user approves, a third party can execute transfer\n\tfunction transferFrom(address _from, address _to, uint256 _value) public returns (bool success) {\n\n\t\t//check that _from address has sufficient tokens for transaction\n\t\trequire(_value <= balanceOf[_from]);\n\n\t\t//check that allowance given to third party is large enough for transaction to succeed\n\t\trequire(_value <= allowance[_from][msg.sender]);\n\n\t\t//update the sender's balance\n\t\tbalanceOf[_from] -= _value;\n\t\tbalanceOf[_to] += _value;\n\n\t\t//reduce allowance accordingly\n\t\tallowance[_from][msg.sender] -= _value;\n\n\t\t//trigger Transfer event\n\t\temit Transfer(_from, _to, _value);\n\t\treturn true;\n\t}\n}\n\n\n\n\n\n\n\n\n\n\n\n\n\n\n\n\n\n//",
  "sourcePath": "/Users/clavance/Desktop/Dropbox/Group_project/orbitdb_decentralised_exchange/smart_contracts/contracts/OrbitToken.sol",
  "compiler": {
    "name": "solc",
    "version": "0.5.0+commit.1d4f565a.Emscripten.clang"
  },
  "schemaVersion": "3.0.1",
  "updatedAt": "2019-03-03T02:08:50.883Z",
  "devdoc": {
    "methods": {}
  },
  "userdoc": {
    "methods": {}
  }
}